{"abi":[{"type":"constructor","inputs":[{"name":"_owner","type":"address","internalType":"address"},{"name":"_manager","type":"address","internalType":"address"}],"stateMutability":"nonpayable"},{"type":"receive","stateMutability":"payable"},{"type":"function","name":"balances","inputs":[{"name":"","type":"address","internalType":"address"}],"outputs":[{"name":"","type":"uint256","internalType":"uint256"}],"stateMutability":"view"},{"type":"function","name":"deposit","inputs":[],"outputs":[],"stateMutability":"payable"},{"type":"function","name":"execute","inputs":[{"name":"target","type":"address","internalType":"address"},{"name":"value","type":"uint256","internalType":"uint256"},{"name":"data","type":"bytes","internalType":"bytes"}],"outputs":[{"name":"","type":"bytes","internalType":"bytes"}],"stateMutability":"nonpayable"},{"type":"function","name":"guardrail","inputs":[],"outputs":[{"name":"dailyLimit","type":"uint256","internalType":"uint256"},{"name":"maxPerTx","type":"uint256","internalType":"uint256"},{"name":"usedToday","type":"uint256","internalType":"uint256"},{"name":"lastReset","type":"uint256","internalType":"uint256"}],"stateMutability":"view"},{"type":"function","name":"manager","inputs":[],"outputs":[{"name":"","type":"address","internalType":"address"}],"stateMutability":"view"},{"type":"function","name":"owner","inputs":[],"outputs":[{"name":"","type":"address","internalType":"address"}],"stateMutability":"view"},{"type":"function","name":"paused","inputs":[],"outputs":[{"name":"","type":"bool","internalType":"bool"}],"stateMutability":"view"},{"type":"function","name":"setDailyLimit","inputs":[{"name":"_dailyLimit","type":"uint256","internalType":"uint256"}],"outputs":[],"stateMutability":"nonpayable"},{"type":"function","name":"setManager","inputs":[{"name":"_manager","type":"address","internalType":"address"}],"outputs":[],"stateMutability":"nonpayable"},{"type":"function","name":"setMaxPerTx","inputs":[{"name":"_maxPerTx","type":"uint256","internalType":"uint256"}],"outputs":[],"stateMutability":"nonpayable"},{"type":"function","name":"setWhitelistTarget","inputs":[{"name":"target","type":"address","internalType":"address"},{"name":"allowed","type":"bool","internalType":"bool"}],"outputs":[],"stateMutability":"nonpayable"},{"type":"function","name":"togglePause","inputs":[],"outputs":[],"stateMutability":"nonpayable"},{"type":"function","name":"whitelistedTargets","inputs":[{"name":"","type":"address","internalType":"address"}],"outputs":[{"name":"","type":"bool","internalType":"bool"}],"stateMutability":"view"},{"type":"function","name":"withdraw","inputs":[{"name":"amount","type":"uint256","internalType":"uint256"}],"outputs":[],"stateMutability":"nonpayable"},{"type":"event","name":"DailyLimitUpdated","inputs":[{"name":"dailyLimit","type":"uint256","indexed":false,"internalType":"uint256"}],"anonymous":false},{"type":"event","name":"Deposited","inputs":[{"name":"user","type":"address","indexed":true,"internalType":"address"},{"name":"amount","type":"uint256","indexed":false,"internalType":"uint256"}],"anonymous":false},{"type":"event","name":"Executed","inputs":[{"name":"target","type":"address","indexed":true,"internalType":"address"},{"name":"value","type":"uint256","indexed":false,"internalType":"uint256"},{"name":"data","type":"bytes","indexed":false,"internalType":"bytes"}],"anonymous":false},{"type":"event","name":"GuardrailReset","inputs":[{"name":"lastReset","type":"uint256","indexed":false,"internalType":"uint256"}],"anonymous":false},{"type":"event","name":"ManagerUpdated","inputs":[{"name":"manager","type":"address","indexed":true,"internalType":"address"}],"anonymous":false},{"type":"event","name":"MaxPerTxUpdated","inputs":[{"name":"maxPerTx","type":"uint256","indexed":false,"internalType":"uint256"}],"anonymous":false},{"type":"event","name":"Paused","inputs":[{"name":"paused","type":"bool","indexed":false,"internalType":"bool"}],"anonymous":false},{"type":"event","name":"WhitelistTargetUpdated","inputs":[{"name":"target","type":"address","indexed":true,"internalType":"address"},{"name":"allowed","type":"bool","indexed":false,"internalType":"bool"}],"anonymous":false},{"type":"event","name":"Withdrawn","inputs":[{"name":"user","type":"address","indexed":true,"internalType":"address"},{"name":"amount","type":"uint256","indexed":false,"internalType":"uint256"}],"anonymous":false}],"bytecode":{"object":"0x608060405234801561000f575f5ffd5b50604051611aff380380611aff83398181016040528101906100319190610224565b815f5f6101000a81548173ffffffffffffffffffffffffffffffffffffffff021916908373ffffffffffffffffffffffffffffffffffffffff1602179055508060015f6101000a81548173ffffffffffffffffffffffffffffffffffffffff021916908373ffffffffffffffffffffffffffffffffffffffff160217905550600160065f73013e138ef6008ae5fdfde29700e3f2bc61d21e3a73ffffffffffffffffffffffffffffffffffffffff1673ffffffffffffffffffffffffffffffffffffffff1681526020019081526020015f205f6101000a81548160ff021916908315150217905550600160065f73458f293454fe0d67ec0655f3672301301dd5142273ffffffffffffffffffffffffffffffffffffffff1673ffffffffffffffffffffffffffffffffffffffff1681526020019081526020015f205f6101000a81548160ff021916908315150217905550683635c9adc5dea0000060025f0181905550681b1ae4d6e2ef50000060026001018190555062015180426101b69190610298565b60026003018190555050506102c8565b5f5ffd5b5f73ffffffffffffffffffffffffffffffffffffffff82169050919050565b5f6101f3826101ca565b9050919050565b610203816101e9565b811461020d575f5ffd5b50565b5f8151905061021e816101fa565b92915050565b5f5f6040838503121561023a576102396101c6565b5b5f61024785828601610210565b925050602061025885828601610210565b9150509250929050565b5f819050919050565b7f4e487b71000000000000000000000000000000000000000000000000000000005f52601260045260245ffd5b5f6102a282610262565b91506102ad83610262565b9250826102bd576102bc61026b565b5b828204905092915050565b61182a806102d55f395ff3fe6080604052600436106100e0575f3560e01c8063b61d27f61161007e578063d02f8c2f11610058578063d02f8c2f1461029c578063d0e30db0146102c4578063d0ebdbe7146102ce578063fb9ed257146102f6576100e7565b8063b61d27f614610222578063c4ae31681461025e578063c6f6f21614610274576100e7565b8063481c6a75116100ba578063481c6a751461017c5780635c975abb146101a65780638da5cb5b146101d0578063b20d30a9146101fa576100e7565b806319bf9293146100eb57806327e235e3146101185780632e1a7d4d14610154576100e7565b366100e757005b5f5ffd5b3480156100f6575f5ffd5b506100ff610332565b60405161010f9493929190610f7b565b60405180910390f35b348015610123575f5ffd5b5061013e60048036038101906101399190611020565b61034f565b60405161014b919061104b565b60405180910390f35b34801561015f575f5ffd5b5061017a6004803603810190610175919061108e565b610364565b005b348015610187575f5ffd5b5061019061051c565b60405161019d91906110c8565b60405180910390f35b3480156101b1575f5ffd5b506101ba610541565b6040516101c791906110fb565b60405180910390f35b3480156101db575f5ffd5b506101e4610554565b6040516101f191906110c8565b60405180910390f35b348015610205575f5ffd5b50610220600480360381019061021b919061108e565b610578565b005b34801561022d575f5ffd5b5061024860048036038101906102439190611175565b610649565b6040516102559190611256565b60405180910390f35b348015610269575f5ffd5b50610272610a39565b005b34801561027f575f5ffd5b5061029a6004803603810190610295919061108e565b610b39565b005b3480156102a7575f5ffd5b506102c260048036038101906102bd91906112a0565b610c0b565b005b6102cc610d3f565b005b3480156102d9575f5ffd5b506102f460048036038101906102ef9190611020565b610e32565b005b348015610301575f5ffd5b5061031c60048036038101906103179190611020565b610f46565b60405161032991906110fb565b60405180910390f35b6002805f0154908060010154908060020154908060030154905084565b6007602052805f5260405f205f915090505481565b600160149054906101000a900460ff16156103b4576040517f08c379a00000000000000000000000000000000000000000000000000000000081526004016103ab90611338565b60405180910390fd5b8060075f3373ffffffffffffffffffffffffffffffffffffffff1673ffffffffffffffffffffffffffffffffffffffff1681526020019081526020015f20541015610434576040517f08c379a000000000000000000000000000000000000000000000000000000000815260040161042b906113a0565b60405180910390fd5b8060075f3373ffffffffffffffffffffffffffffffffffffffff1673ffffffffffffffffffffffffffffffffffffffff1681526020019081526020015f205f82825461048091906113eb565b925050819055503373ffffffffffffffffffffffffffffffffffffffff166108fc8290811502906040515f60405180830381858888f193505050501580156104ca573d5f5f3e3d5ffd5b503373ffffffffffffffffffffffffffffffffffffffff167f7084f5476618d8e60b11ef0d7d3f06914655adb8793e28ff7f018d4c76d505d582604051610511919061104b565b60405180910390a250565b60015f9054906101000a900473ffffffffffffffffffffffffffffffffffffffff1681565b600160149054906101000a900460ff1681565b5f5f9054906101000a900473ffffffffffffffffffffffffffffffffffffffff1681565b5f5f9054906101000a900473ffffffffffffffffffffffffffffffffffffffff1673ffffffffffffffffffffffffffffffffffffffff163373ffffffffffffffffffffffffffffffffffffffff1614610606576040517f08c379a00000000000000000000000000000000000000000000000000000000081526004016105fd90611468565b60405180910390fd5b8060025f01819055507f6cd8635c4285386b9de2e59a4c1eaf32ad41f28ae64c308280217d7af51464e08160405161063e919061104b565b60405180910390a150565b606060015f9054906101000a900473ffffffffffffffffffffffffffffffffffffffff1673ffffffffffffffffffffffffffffffffffffffff163373ffffffffffffffffffffffffffffffffffffffff1614806106f157505f5f9054906101000a900473ffffffffffffffffffffffffffffffffffffffff1673ffffffffffffffffffffffffffffffffffffffff163373ffffffffffffffffffffffffffffffffffffffff16145b610730576040517f08c379a0000000000000000000000000000000000000000000000000000000008152600401610727906114d0565b60405180910390fd5b600160149054906101000a900460ff1615610780576040517f08c379a000000000000000000000000000000000000000000000000000000000815260040161077790611338565b60405180910390fd5b60065f8673ffffffffffffffffffffffffffffffffffffffff1673ffffffffffffffffffffffffffffffffffffffff1681526020019081526020015f205f9054906101000a900460ff16610809576040517f08c379a000000000000000000000000000000000000000000000000000000000815260040161080090611538565b60405180910390fd5b5f62015180426108199190611583565b9050600260030154811115610873575f6002800181905550806002600301819055507f1d6dd5de4442b77f703bc136689f651987f6071724c90212d62bfcef8782421b8160405161086a919061104b565b60405180910390a15b6002600101548511156108bb576040517f08c379a00000000000000000000000000000000000000000000000000000000081526004016108b290611623565b60405180910390fd5b60025f01548560028001546108d09190611641565b1115610911576040517f08c379a0000000000000000000000000000000000000000000000000000000008152600401610908906116be565b60405180910390fd5b84600280015f8282546109249190611641565b925050819055505f5f8773ffffffffffffffffffffffffffffffffffffffff16878787604051610955929190611718565b5f6040518083038185875af1925050503d805f811461098f576040519150601f19603f3d011682016040523d82523d5f602084013e610994565b606091505b5091509150816109d9576040517f08c379a00000000000000000000000000000000000000000000000000000000081526004016109d09061177a565b60405180910390fd5b8773ffffffffffffffffffffffffffffffffffffffff167fcaf938de11c367272220bfd1d2baa99ca46665e7bc4d85f00adb51b90fe1fa9f888888604051610a23939291906117c4565b60405180910390a2809350505050949350505050565b5f5f9054906101000a900473ffffffffffffffffffffffffffffffffffffffff1673ffffffffffffffffffffffffffffffffffffffff163373ffffffffffffffffffffffffffffffffffffffff1614610ac7576040517f08c379a0000000000000000000000000000000000000000000000000000000008152600401610abe90611468565b60405180910390fd5b600160149054906101000a900460ff1615600160146101000a81548160ff0219169083151502179055507f0e2fb031ee032dc02d8011dc50b816eb450cf856abd8261680dac74f72165bd2600160149054906101000a900460ff16604051610b2f91906110fb565b60405180910390a1565b5f5f9054906101000a900473ffffffffffffffffffffffffffffffffffffffff1673ffffffffffffffffffffffffffffffffffffffff163373ffffffffffffffffffffffffffffffffffffffff1614610bc7576040517f08c379a0000000000000000000000000000000000000000000000000000000008152600401610bbe90611468565b60405180910390fd5b806002600101819055507fc9d409c775d2f15b728463cf72bc5e79ee59240c272bbb27a2ed19478333dac081604051610c00919061104b565b60405180910390a150565b5f5f9054906101000a900473ffffffffffffffffffffffffffffffffffffffff1673ffffffffffffffffffffffffffffffffffffffff163373ffffffffffffffffffffffffffffffffffffffff1614610c99576040517f08c379a0000000000000000000000000000000000000000000000000000000008152600401610c9090611468565b60405180910390fd5b8060065f8473ffffffffffffffffffffffffffffffffffffffff1673ffffffffffffffffffffffffffffffffffffffff1681526020019081526020015f205f6101000a81548160ff0219169083151502179055508173ffffffffffffffffffffffffffffffffffffffff167ff158226ab4db66ddcfc631e4097f47352db1a27570eddf8873f49204ba1b993d82604051610d3391906110fb565b60405180910390a25050565b600160149054906101000a900460ff1615610d8f576040517f08c379a0000000000000000000000000000000000000000000000000000000008152600401610d8690611338565b60405180910390fd5b3460075f3373ffffffffffffffffffffffffffffffffffffffff1673ffffffffffffffffffffffffffffffffffffffff1681526020019081526020015f205f828254610ddb9190611641565b925050819055503373ffffffffffffffffffffffffffffffffffffffff167f2da466a7b24304f47e87fa2e1e5a81b9831ce54fec19055ce277ca2f39ba42c434604051610e28919061104b565b60405180910390a2565b5f5f9054906101000a900473ffffffffffffffffffffffffffffffffffffffff1673ffffffffffffffffffffffffffffffffffffffff163373ffffffffffffffffffffffffffffffffffffffff1614610ec0576040517f08c379a0000000000000000000000000000000000000000000000000000000008152600401610eb790611468565b60405180910390fd5b8060015f6101000a81548173ffffffffffffffffffffffffffffffffffffffff021916908373ffffffffffffffffffffffffffffffffffffffff1602179055508073ffffffffffffffffffffffffffffffffffffffff167f2c1c11af44aa5608f1dca38c00275c30ea091e02417d36e70e9a1538689c433d60405160405180910390a250565b6006602052805f5260405f205f915054906101000a900460ff1681565b5f819050919050565b610f7581610f63565b82525050565b5f608082019050610f8e5f830187610f6c565b610f9b6020830186610f6c565b610fa86040830185610f6c565b610fb56060830184610f6c565b95945050505050565b5f5ffd5b5f5ffd5b5f73ffffffffffffffffffffffffffffffffffffffff82169050919050565b5f610fef82610fc6565b9050919050565b610fff81610fe5565b8114611009575f5ffd5b50565b5f8135905061101a81610ff6565b92915050565b5f6020828403121561103557611034610fbe565b5b5f6110428482850161100c565b91505092915050565b5f60208201905061105e5f830184610f6c565b92915050565b61106d81610f63565b8114611077575f5ffd5b50565b5f8135905061108881611064565b92915050565b5f602082840312156110a3576110a2610fbe565b5b5f6110b08482850161107a565b91505092915050565b6110c281610fe5565b82525050565b5f6020820190506110db5f8301846110b9565b92915050565b5f8115159050919050565b6110f5816110e1565b82525050565b5f60208201905061110e5f8301846110ec565b92915050565b5f5ffd5b5f5ffd5b5f5ffd5b5f5f83601f84011261113557611134611114565b5b8235905067ffffffffffffffff81111561115257611151611118565b5b60208301915083600182028301111561116e5761116d61111c565b5b9250929050565b5f5f5f5f6060858703121561118d5761118c610fbe565b5b5f61119a8782880161100c565b94505060206111ab8782880161107a565b935050604085013567ffffffffffffffff8111156111cc576111cb610fc2565b5b6111d887828801611120565b925092505092959194509250565b5f81519050919050565b5f82825260208201905092915050565b8281835e5f83830152505050565b5f601f19601f8301169050919050565b5f611228826111e6565b61123281856111f0565b9350611242818560208601611200565b61124b8161120e565b840191505092915050565b5f6020820190508181035f83015261126e818461121e565b905092915050565b61127f816110e1565b8114611289575f5ffd5b50565b5f8135905061129a81611276565b92915050565b5f5f604083850312156112b6576112b5610fbe565b5b5f6112c38582860161100c565b92505060206112d48582860161128c565b9150509250929050565b5f82825260208201905092915050565b7f54726561737572793a20706175736564000000000000000000000000000000005f82015250565b5f6113226010836112de565b915061132d826112ee565b602082019050919050565b5f6020820190508181035f83015261134f81611316565b9050919050565b7f54726561737572793a20696e73756666696369656e742062616c616e636500005f82015250565b5f61138a601e836112de565b915061139582611356565b602082019050919050565b5f6020820190508181035f8301526113b78161137e565b9050919050565b7f4e487b71000000000000000000000000000000000000000000000000000000005f52601160045260245ffd5b5f6113f582610f63565b915061140083610f63565b9250828203905081811115611418576114176113be565b5b92915050565b7f54726561737572793a206e6f74206f776e6572000000000000000000000000005f82015250565b5f6114526013836112de565b915061145d8261141e565b602082019050919050565b5f6020820190508181035f83015261147f81611446565b9050919050565b7f54726561737572793a206e6f74206d616e61676572206f72206f776e657200005f82015250565b5f6114ba601e836112de565b91506114c582611486565b602082019050919050565b5f6020820190508181035f8301526114e7816114ae565b9050919050565b7f54726561737572793a20746172676574206e6f742077686974656c69737465645f82015250565b5f6115226020836112de565b915061152d826114ee565b602082019050919050565b5f6020820190508181035f83015261154f81611516565b9050919050565b7f4e487b71000000000000000000000000000000000000000000000000000000005f52601260045260245ffd5b5f61158d82610f63565b915061159883610f63565b9250826115a8576115a7611556565b5b828204905092915050565b7f54726561737572793a2065786365656473206d617820706572207478206c696d5f8201527f6974000000000000000000000000000000000000000000000000000000000000602082015250565b5f61160d6022836112de565b9150611618826115b3565b604082019050919050565b5f6020820190508181035f83015261163a81611601565b9050919050565b5f61164b82610f63565b915061165683610f63565b925082820190508082111561166e5761166d6113be565b5b92915050565b7f54726561737572793a206461696c79206c696d697420657863656564656400005f82015250565b5f6116a8601e836112de565b91506116b382611674565b602082019050919050565b5f6020820190508181035f8301526116d58161169c565b9050919050565b5f81905092915050565b828183375f83830152505050565b5f6116ff83856116dc565b935061170c8385846116e6565b82840190509392505050565b5f6117248284866116f4565b91508190509392505050565b7f54726561737572793a2065786563757465206661696c656400000000000000005f82015250565b5f6117646018836112de565b915061176f82611730565b602082019050919050565b5f6020820190508181035f83015261179181611758565b9050919050565b5f6117a383856111f0565b93506117b08385846116e6565b6117b98361120e565b840190509392505050565b5f6040820190506117d75f830186610f6c565b81810360208301526117ea818486611798565b905094935050505056fea264697066735822122095aec625301c315ee6777cea529c35a0f8193c579e63742172f121d664d2bd1e64736f6c634300081c0033","linkReferences":{}},"methodIdentifiers":{"balances(address)":"27e235e3","deposit()":"d0e30db0","execute(address,uint256,bytes)":"b61d27f6","guardrail()":"19bf9293","manager()":"481c6a75","owner()":"8da5cb5b","paused()":"5c975abb","setDailyLimit(uint256)":"b20d30a9","setManager(address)":"d0ebdbe7","setMaxPerTx(uint256)":"c6f6f216","setWhitelistTarget(address,bool)":"d02f8c2f","togglePause()":"c4ae3168","whitelistedTargets(address)":"fb9ed257","withdraw(uint256)":"2e1a7d4d"},"id":0}